:02000000802E50
:10003000317790030031AA74C0318C90030F31AA3C
:1000400031C87401318C7480318C90031A31AA311B
:10005000D17401318C7480318C90032B1201AA1160
:1000600089FC1200D11200E51200FAECB400005035
:1000700002800AB45000500512011D80D4B43C0027
:100080005002800312016380D631C8C2A3D2A320DC
:10009000A2FDC2A0C2A4F5B0D2A4D2A2FD11A0229A
:1000A00075F0338485F07575F014A4F5507464957B
:1000B00050A875B819005002800DB826005004945D
:1000C00009800D940F8009B80C005002800294053D
:1000D00022ECFBB40003FEFF22E4FF2401D4500114
:1000E0000FDBF8FE22EF2430F562EE540F2430F5DA
:1000F00060EEC4540F2430F5612274C012018CE507
:100100006212019CE56112019C1201C8E5601201B6
:100110009C1201C8742512019C1201D12274011293
:10012000018C748012018C90033B1201AAD28712B9
:1001300001D11201D1C2871201D11201D11201D114
:10014000120089FC1200D11200E5740112018C74B6
:100150008012018C90032B1201AA1200FAECB42831
:100160000040BAD282D283D284D2851201D1C28217
:10017000C283C284C285227438318C740E318C746F
:1001800001318C7406318C7480318C221201B4F5EB
:1001900090C2A7C2A6D2A531C8C2A5221201B4F549
:1001A00090D2A7C2A6D2A5C2A522E4936005319C35
:1001B000A380F722C2A77590FFC2A5D2A6C2A7123C
:1001C00001C8D2A72087F6227EFF7DFFDDFEDEFA82
:0E01D000227D0A79FF78FFD8FED9FADDF622EB
:10030000534F494C204D4F495354555245002444B6
:100310004554454354494F4E0024504C41434520D9
:100320005448452050524F424500244D4F495354A4
:100330005552452056414C554500244D4F544F527F
:05034000204F4E0024D7
:00000001FF
